{
  "_format": "hh-sol-artifact-1",
  "contractName": "WavePortal",
  "sourceName": "contracts/WavePortal.sol",
  "abi": [
    {
      "inputs": [],
      "stateMutability": "payable",
      "type": "constructor"
    },
    {
      "anonymous": false,
      "inputs": [
        {
          "indexed": true,
          "internalType": "address",
          "name": "from",
          "type": "address"
        },
        {
          "indexed": false,
          "internalType": "uint256",
          "name": "timestamp",
          "type": "uint256"
        },
        {
          "indexed": false,
          "internalType": "string",
          "name": "message",
          "type": "string"
        }
      ],
      "name": "NewWave",
      "type": "event"
    },
    {
      "inputs": [],
      "name": "getAllWaves",
      "outputs": [
        {
          "components": [
            {
              "internalType": "address",
              "name": "waver",
              "type": "address"
            },
            {
              "internalType": "string",
              "name": "message",
              "type": "string"
            },
            {
              "internalType": "uint256",
              "name": "timestamp",
              "type": "uint256"
            }
          ],
          "internalType": "struct WavePortal.Wave[]",
          "name": "",
          "type": "tuple[]"
        }
      ],
      "stateMutability": "view",
      "type": "function"
    },
    {
      "inputs": [],
      "name": "getTotalWaves",
      "outputs": [
        {
          "internalType": "uint256",
          "name": "",
          "type": "uint256"
        }
      ],
      "stateMutability": "view",
      "type": "function"
    },
    {
      "inputs": [
        {
          "internalType": "address",
          "name": "",
          "type": "address"
        }
      ],
      "name": "senderToCount",
      "outputs": [
        {
          "internalType": "uint256",
          "name": "",
          "type": "uint256"
        }
      ],
      "stateMutability": "view",
      "type": "function"
    },
    {
      "inputs": [
        {
          "internalType": "string",
          "name": "_message",
          "type": "string"
        }
      ],
      "name": "wave",
      "outputs": [],
      "stateMutability": "nonpayable",
      "type": "function"
    }
  ],
  "bytecode": "0x60806040526200004f6040518060400160405280601881526020017f57652068617665206265656e20636f6e737472756374656400000000000000008152506200005560201b620004fa1760201c565b620001df565b620000f5816040516024016200006c9190620001bb565b6040516020818303038152906040527f41304fac000000000000000000000000000000000000000000000000000000007bffffffffffffffffffffffffffffffffffffffffffffffffffffffff19166020820180517bffffffffffffffffffffffffffffffffffffffffffffffffffffffff8381831617835250505050620000f860201b60201c565b50565b60008151905060006a636f6e736f6c652e6c6f679050602083016000808483855afa5050505050565b600081519050919050565b600082825260208201905092915050565b60005b838110156200015d57808201518184015260208101905062000140565b60008484015250505050565b6000601f19601f8301169050919050565b6000620001878262000121565b6200019381856200012c565b9350620001a58185602086016200013d565b620001b08162000169565b840191505092915050565b60006020820190508181036000830152620001d781846200017a565b905092915050565b61112b80620001ef6000396000f3fe608060405234801561001057600080fd5b506004361061004c5760003560e01c8063449d46c0146100515780638cb041701461006d5780639a2cdc081461009d578063bd43a908146100bb575b600080fd5b61006b60048036038101906100669190610851565b6100d9565b005b610087600480360381019061008291906108f8565b610346565b604051610094919061093e565b60405180910390f35b6100a561035e565b6040516100b2919061093e565b60405180910390f35b6100c36103a9565b6040516100d09190610b08565b60405180910390f35b60016000808282546100eb9190610b59565b925050819055506101326040518060400160405280601a81526020017f25732068617320776176656420772f206d6573736167652025730000000000008152503383610593565b600260405180606001604052803373ffffffffffffffffffffffffffffffffffffffff16815260200183815260200142815250908060018154018082558091505060019003906000526020600020906003020160009091909190915060008201518160000160006101000a81548173ffffffffffffffffffffffffffffffffffffffff021916908373ffffffffffffffffffffffffffffffffffffffff16021790555060208201518160010190816101ea9190610d99565b506040820151816002015550503373ffffffffffffffffffffffffffffffffffffffff167f5f7e16dc676677766a70e9c5628aa6c54ddb8b6e5188e2ae1e1f17f1ffbea716428360405161023f929190610eb5565b60405180910390a26000655af3107a4000905047811115610295576040517f08c379a000000000000000000000000000000000000000000000000000000000815260040161028c90610f57565b60405180910390fd5b60003373ffffffffffffffffffffffffffffffffffffffff16826040516102bb90610fa8565b60006040518083038185875af1925050503d80600081146102f8576040519150601f19603f3d011682016040523d82523d6000602084013e6102fd565b606091505b5050905080610341576040517f08c379a00000000000000000000000000000000000000000000000000000000081526004016103389061102f565b60405180910390fd5b505050565b60016020528060005260406000206000915090505481565b60006103a16040518060400160405280601781526020017f5765206861766520256420746f74616c2077617665730a000000000000000000815250600054610632565b600054905090565b60606002805480602002602001604051908101604052809291908181526020016000905b828210156104f157838290600052602060002090600302016040518060600160405290816000820160009054906101000a900473ffffffffffffffffffffffffffffffffffffffff1673ffffffffffffffffffffffffffffffffffffffff1673ffffffffffffffffffffffffffffffffffffffff16815260200160018201805461045690610bbc565b80601f016020809104026020016040519081016040528092919081815260200182805461048290610bbc565b80156104cf5780601f106104a4576101008083540402835291602001916104cf565b820191906000526020600020905b8154815290600101906020018083116104b257829003601f168201915b50505050508152602001600282015481525050815260200190600101906103cd565b50505050905090565b6105908160405160240161050e919061104f565b6040516020818303038152906040527f41304fac000000000000000000000000000000000000000000000000000000007bffffffffffffffffffffffffffffffffffffffffffffffffffffffff19166020820180517bffffffffffffffffffffffffffffffffffffffffffffffffffffffff83818316178352505050506106ce565b50565b61062d8383836040516024016105ab93929190611080565b6040516020818303038152906040527fe0e9ad4f000000000000000000000000000000000000000000000000000000007bffffffffffffffffffffffffffffffffffffffffffffffffffffffff19166020820180517bffffffffffffffffffffffffffffffffffffffffffffffffffffffff83818316178352505050506106ce565b505050565b6106ca82826040516024016106489291906110c5565b6040516020818303038152906040527fb60e72cc000000000000000000000000000000000000000000000000000000007bffffffffffffffffffffffffffffffffffffffffffffffffffffffff19166020820180517bffffffffffffffffffffffffffffffffffffffffffffffffffffffff83818316178352505050506106ce565b5050565b60008151905060006a636f6e736f6c652e6c6f679050602083016000808483855afa5050505050565b6000604051905090565b600080fd5b600080fd5b600080fd5b600080fd5b6000601f19601f8301169050919050565b7f4e487b7100000000000000000000000000000000000000000000000000000000600052604160045260246000fd5b61075e82610715565b810181811067ffffffffffffffff8211171561077d5761077c610726565b5b80604052505050565b60006107906106f7565b905061079c8282610755565b919050565b600067ffffffffffffffff8211156107bc576107bb610726565b5b6107c582610715565b9050602081019050919050565b82818337600083830152505050565b60006107f46107ef846107a1565b610786565b9050828152602081018484840111156108105761080f610710565b5b61081b8482856107d2565b509392505050565b600082601f8301126108385761083761070b565b5b81356108488482602086016107e1565b91505092915050565b60006020828403121561086757610866610701565b5b600082013567ffffffffffffffff81111561088557610884610706565b5b61089184828501610823565b91505092915050565b600073ffffffffffffffffffffffffffffffffffffffff82169050919050565b60006108c58261089a565b9050919050565b6108d5816108ba565b81146108e057600080fd5b50565b6000813590506108f2816108cc565b92915050565b60006020828403121561090e5761090d610701565b5b600061091c848285016108e3565b91505092915050565b6000819050919050565b61093881610925565b82525050565b6000602082019050610953600083018461092f565b92915050565b600081519050919050565b600082825260208201905092915050565b6000819050602082019050919050565b61098e816108ba565b82525050565b600081519050919050565b600082825260208201905092915050565b60005b838110156109ce5780820151818401526020810190506109b3565b60008484015250505050565b60006109e582610994565b6109ef818561099f565b93506109ff8185602086016109b0565b610a0881610715565b840191505092915050565b610a1c81610925565b82525050565b6000606083016000830151610a3a6000860182610985565b5060208301518482036020860152610a5282826109da565b9150506040830151610a676040860182610a13565b508091505092915050565b6000610a7e8383610a22565b905092915050565b6000602082019050919050565b6000610a9e82610959565b610aa88185610964565b935083602082028501610aba85610975565b8060005b85811015610af65784840389528151610ad78582610a72565b9450610ae283610a86565b925060208a01995050600181019050610abe565b50829750879550505050505092915050565b60006020820190508181036000830152610b228184610a93565b905092915050565b7f4e487b7100000000000000000000000000000000000000000000000000000000600052601160045260246000fd5b6000610b6482610925565b9150610b6f83610925565b9250828201905080821115610b8757610b86610b2a565b5b92915050565b7f4e487b7100000000000000000000000000000000000000000000000000000000600052602260045260246000fd5b60006002820490506001821680610bd457607f821691505b602082108103610be757610be6610b8d565b5b50919050565b60008190508160005260206000209050919050565b60006020601f8301049050919050565b600082821b905092915050565b600060088302610c4f7fffffffffffffffffffffffffffffffffffffffffffffffffffffffffffffffff82610c12565b610c598683610c12565b95508019841693508086168417925050509392505050565b6000819050919050565b6000610c96610c91610c8c84610925565b610c71565b610925565b9050919050565b6000819050919050565b610cb083610c7b565b610cc4610cbc82610c9d565b848454610c1f565b825550505050565b600090565b610cd9610ccc565b610ce4818484610ca7565b505050565b5b81811015610d0857610cfd600082610cd1565b600181019050610cea565b5050565b601f821115610d4d57610d1e81610bed565b610d2784610c02565b81016020851015610d36578190505b610d4a610d4285610c02565b830182610ce9565b50505b505050565b600082821c905092915050565b6000610d7060001984600802610d52565b1980831691505092915050565b6000610d898383610d5f565b9150826002028217905092915050565b610da282610994565b67ffffffffffffffff811115610dbb57610dba610726565b5b610dc58254610bbc565b610dd0828285610d0c565b600060209050601f831160018114610e035760008415610df1578287015190505b610dfb8582610d7d565b865550610e63565b601f198416610e1186610bed565b60005b82811015610e3957848901518255600182019150602085019450602081019050610e14565b86831015610e565784890151610e52601f891682610d5f565b8355505b6001600288020188555050505b505050505050565b600082825260208201905092915050565b6000610e8782610994565b610e918185610e6b565b9350610ea18185602086016109b0565b610eaa81610715565b840191505092915050565b6000604082019050610eca600083018561092f565b8181036020830152610edc8184610e7c565b90509392505050565b7f547279696e6720746f207769746864726177206d6f7265206d6f6e657920746860008201527f616e2074686520636f6e74726163742068617300000000000000000000000000602082015250565b6000610f41603383610e6b565b9150610f4c82610ee5565b604082019050919050565b60006020820190508181036000830152610f7081610f34565b9050919050565b600081905092915050565b50565b6000610f92600083610f77565b9150610f9d82610f82565b600082019050919050565b6000610fb382610f85565b9150819050919050565b7f4661696c656420746f207769746864726177206d6f6e65792066726f6d20636f60008201527f6e74726163740000000000000000000000000000000000000000000000000000602082015250565b6000611019602683610e6b565b915061102482610fbd565b604082019050919050565b600060208201905081810360008301526110488161100c565b9050919050565b600060208201905081810360008301526110698184610e7c565b905092915050565b61107a816108ba565b82525050565b6000606082019050818103600083015261109a8186610e7c565b90506110a96020830185611071565b81810360408301526110bb8184610e7c565b9050949350505050565b600060408201905081810360008301526110df8185610e7c565b90506110ee602083018461092f565b939250505056fea2646970667358221220881c0db82615304d56db206381f11f28709e0a6cdc94be14798ccfc3adf9c41564736f6c63430008110033",
  "linkReferences": {},
  "deployedLinkReferences": {}
}