{
  "_format": "hh-sol-artifact-1",
  "contractName": "WavePortal",
  "sourceName": "contracts/WavePortal.sol",
  "abi": [
    {
      "inputs": [],
      "stateMutability": "payable",
      "type": "constructor"
    },
    {
      "anonymous": false,
      "inputs": [
        {
          "indexed": true,
          "internalType": "address",
          "name": "from",
          "type": "address"
        },
        {
          "indexed": false,
          "internalType": "uint256",
          "name": "timestamp",
          "type": "uint256"
        },
        {
          "indexed": false,
          "internalType": "string",
          "name": "message",
          "type": "string"
        }
      ],
      "name": "NewWave",
      "type": "event"
    },
    {
      "inputs": [],
      "name": "getAllWaves",
      "outputs": [
        {
          "components": [
            {
              "internalType": "address",
              "name": "waver",
              "type": "address"
            },
            {
              "internalType": "string",
              "name": "message",
              "type": "string"
            },
            {
              "internalType": "uint256",
              "name": "timestamp",
              "type": "uint256"
            }
          ],
          "internalType": "struct WavePortal.Wave[]",
          "name": "",
          "type": "tuple[]"
        }
      ],
      "stateMutability": "view",
      "type": "function"
    },
    {
      "inputs": [],
      "name": "getTotalWaves",
      "outputs": [
        {
          "internalType": "uint256",
          "name": "",
          "type": "uint256"
        }
      ],
      "stateMutability": "view",
      "type": "function"
    },
    {
      "inputs": [
        {
          "internalType": "address",
          "name": "",
          "type": "address"
        }
      ],
      "name": "lastWavedAt",
      "outputs": [
        {
          "internalType": "uint256",
          "name": "",
          "type": "uint256"
        }
      ],
      "stateMutability": "view",
      "type": "function"
    },
    {
      "inputs": [
        {
          "internalType": "address",
          "name": "",
          "type": "address"
        }
      ],
      "name": "senderToCount",
      "outputs": [
        {
          "internalType": "uint256",
          "name": "",
          "type": "uint256"
        }
      ],
      "stateMutability": "view",
      "type": "function"
    },
    {
      "inputs": [
        {
          "internalType": "string",
          "name": "_message",
          "type": "string"
        }
      ],
      "name": "wave",
      "outputs": [],
      "stateMutability": "nonpayable",
      "type": "function"
    }
  ],
  "bytecode": "0x60806040526200004f6040518060400160405280601881526020017f57652068617665206265656e20636f6e737472756374656400000000000000008152506200007760201b620006d51760201c565b606444426200005f91906200017c565b6200006b9190620001e6565b600181905550620002dc565b62000117816040516024016200008e9190620002b8565b6040516020818303038152906040527f41304fac000000000000000000000000000000000000000000000000000000007bffffffffffffffffffffffffffffffffffffffffffffffffffffffff19166020820180517bffffffffffffffffffffffffffffffffffffffffffffffffffffffff83818316178352505050506200011a60201b60201c565b50565b60008151905060006a636f6e736f6c652e6c6f679050602083016000808483855afa5050505050565b6000819050919050565b7f4e487b7100000000000000000000000000000000000000000000000000000000600052601160045260246000fd5b6000620001898262000143565b9150620001968362000143565b9250828201905080821115620001b157620001b06200014d565b5b92915050565b7f4e487b7100000000000000000000000000000000000000000000000000000000600052601260045260246000fd5b6000620001f38262000143565b9150620002008362000143565b925082620002135762000212620001b7565b5b828206905092915050565b600081519050919050565b600082825260208201905092915050565b60005b838110156200025a5780820151818401526020810190506200023d565b60008484015250505050565b6000601f19601f8301169050919050565b600062000284826200021e565b62000290818562000229565b9350620002a28185602086016200023a565b620002ad8162000266565b840191505092915050565b60006020820190508181036000830152620002d4818462000277565b905092915050565b6113ba80620002ec6000396000f3fe608060405234801561001057600080fd5b50600436106100575760003560e01c8063449d46c01461005c5780638cb04170146100785780639a2cdc08146100a8578063a42a4663146100c6578063bd43a908146100f6575b600080fd5b61007660048036038101906100719190610a29565b610114565b005b610092600480360381019061008d9190610ad0565b610509565b60405161009f9190610b16565b60405180910390f35b6100b0610521565b6040516100bd9190610b16565b60405180910390f35b6100e060048036038101906100db9190610ad0565b61056c565b6040516100ed9190610b16565b60405180910390f35b6100fe610584565b60405161010b9190610ce0565b60405180910390f35b42610384600460003373ffffffffffffffffffffffffffffffffffffffff1673ffffffffffffffffffffffffffffffffffffffff168152602001908152602001600020546101629190610d31565b106101a2576040517f08c379a000000000000000000000000000000000000000000000000000000000815260040161019990610dc2565b60405180910390fd5b42600460003373ffffffffffffffffffffffffffffffffffffffff1673ffffffffffffffffffffffffffffffffffffffff1681526020019081526020016000208190555060016000808282546101f89190610d31565b9250508190555061023e6040518060400160405280600d81526020017f25732068617320776176656421000000000000000000000000000000000000008152503361076e565b600360405180606001604052803373ffffffffffffffffffffffffffffffffffffffff16815260200183815260200142815250908060018154018082558091505060019003906000526020600020906003020160009091909190915060008201518160000160006101000a81548173ffffffffffffffffffffffffffffffffffffffff021916908373ffffffffffffffffffffffffffffffffffffffff16021790555060208201518160010190816102f69190610fee565b50604082015181600201555050606460015442446103149190610d31565b61031e9190610d31565b61032891906110ef565b60018190555061036f6040518060400160405280601681526020017f52616e646f6d20232067656e6572617465643a2025640000000000000000000081525060015461080a565b603260015410156104b6576103b96040518060400160405280600781526020017f257320776f6e21000000000000000000000000000000000000000000000000008152503361076e565b6000655af3107a4000905047811115610407576040517f08c379a00000000000000000000000000000000000000000000000000000000081526004016103fe90611192565b60405180910390fd5b60003373ffffffffffffffffffffffffffffffffffffffff168260405161042d906111e3565b60006040518083038185875af1925050503d806000811461046a576040519150601f19603f3d011682016040523d82523d6000602084013e61046f565b606091505b50509050806104b3576040517f08c379a00000000000000000000000000000000000000000000000000000000081526004016104aa9061126a565b60405180910390fd5b50505b3373ffffffffffffffffffffffffffffffffffffffff167f5f7e16dc676677766a70e9c5628aa6c54ddb8b6e5188e2ae1e1f17f1ffbea71642836040516104fe9291906112c3565b60405180910390a250565b60026020528060005260406000206000915090505481565b60006105646040518060400160405280601781526020017f5765206861766520256420746f74616c2077617665730a00000000000000000081525060005461080a565b600054905090565b60046020528060005260406000206000915090505481565b60606003805480602002602001604051908101604052809291908181526020016000905b828210156106cc57838290600052602060002090600302016040518060600160405290816000820160009054906101000a900473ffffffffffffffffffffffffffffffffffffffff1673ffffffffffffffffffffffffffffffffffffffff1673ffffffffffffffffffffffffffffffffffffffff16815260200160018201805461063190610e11565b80601f016020809104026020016040519081016040528092919081815260200182805461065d90610e11565b80156106aa5780601f1061067f576101008083540402835291602001916106aa565b820191906000526020600020905b81548152906001019060200180831161068d57829003601f168201915b50505050508152602001600282015481525050815260200190600101906105a8565b50505050905090565b61076b816040516024016106e991906112f3565b6040516020818303038152906040527f41304fac000000000000000000000000000000000000000000000000000000007bffffffffffffffffffffffffffffffffffffffffffffffffffffffff19166020820180517bffffffffffffffffffffffffffffffffffffffffffffffffffffffff83818316178352505050506108a6565b50565b6108068282604051602401610784929190611324565b6040516020818303038152906040527f319af333000000000000000000000000000000000000000000000000000000007bffffffffffffffffffffffffffffffffffffffffffffffffffffffff19166020820180517bffffffffffffffffffffffffffffffffffffffffffffffffffffffff83818316178352505050506108a6565b5050565b6108a28282604051602401610820929190611354565b6040516020818303038152906040527fb60e72cc000000000000000000000000000000000000000000000000000000007bffffffffffffffffffffffffffffffffffffffffffffffffffffffff19166020820180517bffffffffffffffffffffffffffffffffffffffffffffffffffffffff83818316178352505050506108a6565b5050565b60008151905060006a636f6e736f6c652e6c6f679050602083016000808483855afa5050505050565b6000604051905090565b600080fd5b600080fd5b600080fd5b600080fd5b6000601f19601f8301169050919050565b7f4e487b7100000000000000000000000000000000000000000000000000000000600052604160045260246000fd5b610936826108ed565b810181811067ffffffffffffffff82111715610955576109546108fe565b5b80604052505050565b60006109686108cf565b9050610974828261092d565b919050565b600067ffffffffffffffff821115610994576109936108fe565b5b61099d826108ed565b9050602081019050919050565b82818337600083830152505050565b60006109cc6109c784610979565b61095e565b9050828152602081018484840111156109e8576109e76108e8565b5b6109f38482856109aa565b509392505050565b600082601f830112610a1057610a0f6108e3565b5b8135610a208482602086016109b9565b91505092915050565b600060208284031215610a3f57610a3e6108d9565b5b600082013567ffffffffffffffff811115610a5d57610a5c6108de565b5b610a69848285016109fb565b91505092915050565b600073ffffffffffffffffffffffffffffffffffffffff82169050919050565b6000610a9d82610a72565b9050919050565b610aad81610a92565b8114610ab857600080fd5b50565b600081359050610aca81610aa4565b92915050565b600060208284031215610ae657610ae56108d9565b5b6000610af484828501610abb565b91505092915050565b6000819050919050565b610b1081610afd565b82525050565b6000602082019050610b2b6000830184610b07565b92915050565b600081519050919050565b600082825260208201905092915050565b6000819050602082019050919050565b610b6681610a92565b82525050565b600081519050919050565b600082825260208201905092915050565b60005b83811015610ba6578082015181840152602081019050610b8b565b60008484015250505050565b6000610bbd82610b6c565b610bc78185610b77565b9350610bd7818560208601610b88565b610be0816108ed565b840191505092915050565b610bf481610afd565b82525050565b6000606083016000830151610c126000860182610b5d565b5060208301518482036020860152610c2a8282610bb2565b9150506040830151610c3f6040860182610beb565b508091505092915050565b6000610c568383610bfa565b905092915050565b6000602082019050919050565b6000610c7682610b31565b610c808185610b3c565b935083602082028501610c9285610b4d565b8060005b85811015610cce5784840389528151610caf8582610c4a565b9450610cba83610c5e565b925060208a01995050600181019050610c96565b50829750879550505050505092915050565b60006020820190508181036000830152610cfa8184610c6b565b905092915050565b7f4e487b7100000000000000000000000000000000000000000000000000000000600052601160045260246000fd5b6000610d3c82610afd565b9150610d4783610afd565b9250828201905080821115610d5f57610d5e610d02565b5b92915050565b600082825260208201905092915050565b7f576169742031356d000000000000000000000000000000000000000000000000600082015250565b6000610dac600883610d65565b9150610db782610d76565b602082019050919050565b60006020820190508181036000830152610ddb81610d9f565b9050919050565b7f4e487b7100000000000000000000000000000000000000000000000000000000600052602260045260246000fd5b60006002820490506001821680610e2957607f821691505b602082108103610e3c57610e3b610de2565b5b50919050565b60008190508160005260206000209050919050565b60006020601f8301049050919050565b600082821b905092915050565b600060088302610ea47fffffffffffffffffffffffffffffffffffffffffffffffffffffffffffffffff82610e67565b610eae8683610e67565b95508019841693508086168417925050509392505050565b6000819050919050565b6000610eeb610ee6610ee184610afd565b610ec6565b610afd565b9050919050565b6000819050919050565b610f0583610ed0565b610f19610f1182610ef2565b848454610e74565b825550505050565b600090565b610f2e610f21565b610f39818484610efc565b505050565b5b81811015610f5d57610f52600082610f26565b600181019050610f3f565b5050565b601f821115610fa257610f7381610e42565b610f7c84610e57565b81016020851015610f8b578190505b610f9f610f9785610e57565b830182610f3e565b50505b505050565b600082821c905092915050565b6000610fc560001984600802610fa7565b1980831691505092915050565b6000610fde8383610fb4565b9150826002028217905092915050565b610ff782610b6c565b67ffffffffffffffff8111156110105761100f6108fe565b5b61101a8254610e11565b611025828285610f61565b600060209050601f8311600181146110585760008415611046578287015190505b6110508582610fd2565b8655506110b8565b601f19841661106686610e42565b60005b8281101561108e57848901518255600182019150602085019450602081019050611069565b868310156110ab57848901516110a7601f891682610fb4565b8355505b6001600288020188555050505b505050505050565b7f4e487b7100000000000000000000000000000000000000000000000000000000600052601260045260246000fd5b60006110fa82610afd565b915061110583610afd565b925082611115576111146110c0565b5b828206905092915050565b7f547279696e6720746f207769746864726177206d6f7265206d6f6e657920746860008201527f616e2074686520636f6e7472616374206861732e000000000000000000000000602082015250565b600061117c603483610d65565b915061118782611120565b604082019050919050565b600060208201905081810360008301526111ab8161116f565b9050919050565b600081905092915050565b50565b60006111cd6000836111b2565b91506111d8826111bd565b600082019050919050565b60006111ee826111c0565b9150819050919050565b7f4661696c656420746f207769746864726177206d6f6e65792066726f6d20636f60008201527f6e74726163742e00000000000000000000000000000000000000000000000000602082015250565b6000611254602783610d65565b915061125f826111f8565b604082019050919050565b6000602082019050818103600083015261128381611247565b9050919050565b600061129582610b6c565b61129f8185610d65565b93506112af818560208601610b88565b6112b8816108ed565b840191505092915050565b60006040820190506112d86000830185610b07565b81810360208301526112ea818461128a565b90509392505050565b6000602082019050818103600083015261130d818461128a565b905092915050565b61131e81610a92565b82525050565b6000604082019050818103600083015261133e818561128a565b905061134d6020830184611315565b9392505050565b6000604082019050818103600083015261136e818561128a565b905061137d6020830184610b07565b939250505056fea2646970667358221220d35f6af09d357c2600a319b43799dbb7fdc7263f97ddcc23c59cbe485309ea4e64736f6c63430008110033",
  "linkReferences": {},
  "deployedLinkReferences": {}
}