{
  "_format": "hh-sol-artifact-1",
  "contractName": "WavePortal",
  "sourceName": "contracts/WavePortal.sol",
  "abi": [
    {
      "inputs": [],
      "stateMutability": "nonpayable",
      "type": "constructor"
    },
    {
      "anonymous": false,
      "inputs": [
        {
          "indexed": true,
          "internalType": "address",
          "name": "from",
          "type": "address"
        },
        {
          "indexed": false,
          "internalType": "uint256",
          "name": "timestamp",
          "type": "uint256"
        },
        {
          "indexed": false,
          "internalType": "string",
          "name": "message",
          "type": "string"
        }
      ],
      "name": "NewWave",
      "type": "event"
    },
    {
      "inputs": [],
      "name": "getAllWaves",
      "outputs": [
        {
          "components": [
            {
              "internalType": "address",
              "name": "waver",
              "type": "address"
            },
            {
              "internalType": "string",
              "name": "message",
              "type": "string"
            },
            {
              "internalType": "uint256",
              "name": "timestamp",
              "type": "uint256"
            }
          ],
          "internalType": "struct WavePortal.Wave[]",
          "name": "",
          "type": "tuple[]"
        }
      ],
      "stateMutability": "view",
      "type": "function"
    },
    {
      "inputs": [],
      "name": "getTotalWaves",
      "outputs": [
        {
          "internalType": "uint256",
          "name": "",
          "type": "uint256"
        }
      ],
      "stateMutability": "view",
      "type": "function"
    },
    {
      "inputs": [
        {
          "internalType": "address",
          "name": "",
          "type": "address"
        }
      ],
      "name": "senderToCount",
      "outputs": [
        {
          "internalType": "uint256",
          "name": "",
          "type": "uint256"
        }
      ],
      "stateMutability": "view",
      "type": "function"
    },
    {
      "inputs": [
        {
          "internalType": "string",
          "name": "_message",
          "type": "string"
        }
      ],
      "name": "wave",
      "outputs": [],
      "stateMutability": "nonpayable",
      "type": "function"
    }
  ],
  "bytecode": "0x60806040523480156200001157600080fd5b50620000416040518060600160405280603d8152602001620010a6603d91396200004760201b620003fe1760201c565b620001d1565b620000e7816040516024016200005e9190620001ad565b6040516020818303038152906040527f41304fac000000000000000000000000000000000000000000000000000000007bffffffffffffffffffffffffffffffffffffffffffffffffffffffff19166020820180517bffffffffffffffffffffffffffffffffffffffffffffffffffffffff8381831617835250505050620000ea60201b60201c565b50565b60008151905060006a636f6e736f6c652e6c6f679050602083016000808483855afa5050505050565b600081519050919050565b600082825260208201905092915050565b60005b838110156200014f57808201518184015260208101905062000132565b60008484015250505050565b6000601f19601f8301169050919050565b6000620001798262000113565b6200018581856200011e565b9350620001978185602086016200012f565b620001a2816200015b565b840191505092915050565b60006020820190508181036000830152620001c981846200016c565b905092915050565b610ec580620001e16000396000f3fe608060405234801561001057600080fd5b506004361061004c5760003560e01c8063449d46c0146100515780638cb041701461006d5780639a2cdc081461009d578063bd43a908146100bb575b600080fd5b61006b60048036038101906100669190610755565b6100d9565b005b610087600480360381019061008291906107fc565b61024a565b6040516100949190610842565b60405180910390f35b6100a5610262565b6040516100b29190610842565b60405180910390f35b6100c36102ad565b6040516100d09190610a0c565b60405180910390f35b60016000808282546100eb9190610a5d565b925050819055506101326040518060400160405280601a81526020017f25732068617320776176656420772f206d6573736167652025730000000000008152503383610497565b600260405180606001604052803373ffffffffffffffffffffffffffffffffffffffff16815260200183815260200142815250908060018154018082558091505060019003906000526020600020906003020160009091909190915060008201518160000160006101000a81548173ffffffffffffffffffffffffffffffffffffffff021916908373ffffffffffffffffffffffffffffffffffffffff16021790555060208201518160010190816101ea9190610c9d565b506040820151816002015550503373ffffffffffffffffffffffffffffffffffffffff167f5f7e16dc676677766a70e9c5628aa6c54ddb8b6e5188e2ae1e1f17f1ffbea716428360405161023f929190610db9565b60405180910390a250565b60016020528060005260406000206000915090505481565b60006102a56040518060400160405280601781526020017f5765206861766520256420746f74616c2077617665730a000000000000000000815250600054610536565b600054905090565b60606002805480602002602001604051908101604052809291908181526020016000905b828210156103f557838290600052602060002090600302016040518060600160405290816000820160009054906101000a900473ffffffffffffffffffffffffffffffffffffffff1673ffffffffffffffffffffffffffffffffffffffff1673ffffffffffffffffffffffffffffffffffffffff16815260200160018201805461035a90610ac0565b80601f016020809104026020016040519081016040528092919081815260200182805461038690610ac0565b80156103d35780601f106103a8576101008083540402835291602001916103d3565b820191906000526020600020905b8154815290600101906020018083116103b657829003601f168201915b50505050508152602001600282015481525050815260200190600101906102d1565b50505050905090565b610494816040516024016104129190610de9565b6040516020818303038152906040527f41304fac000000000000000000000000000000000000000000000000000000007bffffffffffffffffffffffffffffffffffffffffffffffffffffffff19166020820180517bffffffffffffffffffffffffffffffffffffffffffffffffffffffff83818316178352505050506105d2565b50565b6105318383836040516024016104af93929190610e1a565b6040516020818303038152906040527fe0e9ad4f000000000000000000000000000000000000000000000000000000007bffffffffffffffffffffffffffffffffffffffffffffffffffffffff19166020820180517bffffffffffffffffffffffffffffffffffffffffffffffffffffffff83818316178352505050506105d2565b505050565b6105ce828260405160240161054c929190610e5f565b6040516020818303038152906040527fb60e72cc000000000000000000000000000000000000000000000000000000007bffffffffffffffffffffffffffffffffffffffffffffffffffffffff19166020820180517bffffffffffffffffffffffffffffffffffffffffffffffffffffffff83818316178352505050506105d2565b5050565b60008151905060006a636f6e736f6c652e6c6f679050602083016000808483855afa5050505050565b6000604051905090565b600080fd5b600080fd5b600080fd5b600080fd5b6000601f19601f8301169050919050565b7f4e487b7100000000000000000000000000000000000000000000000000000000600052604160045260246000fd5b61066282610619565b810181811067ffffffffffffffff821117156106815761068061062a565b5b80604052505050565b60006106946105fb565b90506106a08282610659565b919050565b600067ffffffffffffffff8211156106c0576106bf61062a565b5b6106c982610619565b9050602081019050919050565b82818337600083830152505050565b60006106f86106f3846106a5565b61068a565b90508281526020810184848401111561071457610713610614565b5b61071f8482856106d6565b509392505050565b600082601f83011261073c5761073b61060f565b5b813561074c8482602086016106e5565b91505092915050565b60006020828403121561076b5761076a610605565b5b600082013567ffffffffffffffff8111156107895761078861060a565b5b61079584828501610727565b91505092915050565b600073ffffffffffffffffffffffffffffffffffffffff82169050919050565b60006107c98261079e565b9050919050565b6107d9816107be565b81146107e457600080fd5b50565b6000813590506107f6816107d0565b92915050565b60006020828403121561081257610811610605565b5b6000610820848285016107e7565b91505092915050565b6000819050919050565b61083c81610829565b82525050565b60006020820190506108576000830184610833565b92915050565b600081519050919050565b600082825260208201905092915050565b6000819050602082019050919050565b610892816107be565b82525050565b600081519050919050565b600082825260208201905092915050565b60005b838110156108d25780820151818401526020810190506108b7565b60008484015250505050565b60006108e982610898565b6108f381856108a3565b93506109038185602086016108b4565b61090c81610619565b840191505092915050565b61092081610829565b82525050565b600060608301600083015161093e6000860182610889565b506020830151848203602086015261095682826108de565b915050604083015161096b6040860182610917565b508091505092915050565b60006109828383610926565b905092915050565b6000602082019050919050565b60006109a28261085d565b6109ac8185610868565b9350836020820285016109be85610879565b8060005b858110156109fa57848403895281516109db8582610976565b94506109e68361098a565b925060208a019950506001810190506109c2565b50829750879550505050505092915050565b60006020820190508181036000830152610a268184610997565b905092915050565b7f4e487b7100000000000000000000000000000000000000000000000000000000600052601160045260246000fd5b6000610a6882610829565b9150610a7383610829565b9250828201905080821115610a8b57610a8a610a2e565b5b92915050565b7f4e487b7100000000000000000000000000000000000000000000000000000000600052602260045260246000fd5b60006002820490506001821680610ad857607f821691505b602082108103610aeb57610aea610a91565b5b50919050565b60008190508160005260206000209050919050565b60006020601f8301049050919050565b600082821b905092915050565b600060088302610b537fffffffffffffffffffffffffffffffffffffffffffffffffffffffffffffffff82610b16565b610b5d8683610b16565b95508019841693508086168417925050509392505050565b6000819050919050565b6000610b9a610b95610b9084610829565b610b75565b610829565b9050919050565b6000819050919050565b610bb483610b7f565b610bc8610bc082610ba1565b848454610b23565b825550505050565b600090565b610bdd610bd0565b610be8818484610bab565b505050565b5b81811015610c0c57610c01600082610bd5565b600181019050610bee565b5050565b601f821115610c5157610c2281610af1565b610c2b84610b06565b81016020851015610c3a578190505b610c4e610c4685610b06565b830182610bed565b50505b505050565b600082821c905092915050565b6000610c7460001984600802610c56565b1980831691505092915050565b6000610c8d8383610c63565b9150826002028217905092915050565b610ca682610898565b67ffffffffffffffff811115610cbf57610cbe61062a565b5b610cc98254610ac0565b610cd4828285610c10565b600060209050601f831160018114610d075760008415610cf5578287015190505b610cff8582610c81565b865550610d67565b601f198416610d1586610af1565b60005b82811015610d3d57848901518255600182019150602085019450602081019050610d18565b86831015610d5a5784890151610d56601f891682610c63565b8355505b6001600288020188555050505b505050505050565b600082825260208201905092915050565b6000610d8b82610898565b610d958185610d6f565b9350610da58185602086016108b4565b610dae81610619565b840191505092915050565b6000604082019050610dce6000830185610833565b8181036020830152610de08184610d80565b90509392505050565b60006020820190508181036000830152610e038184610d80565b905092915050565b610e14816107be565b82525050565b60006060820190508181036000830152610e348186610d80565b9050610e436020830185610e0b565b8181036040830152610e558184610d80565b9050949350505050565b60006040820190508181036000830152610e798185610d80565b9050610e886020830184610833565b939250505056fea2646970667358221220ccb49a4b4c105ffa3be1c153103d0c5984475ae8308d013e2aecf2208d5b08c364736f6c6343000811003354686973206973206d7920666972737420696e746572616374696f6e207769746820736d61727420636f6e74726163747320616e642068617264686174",
  "linkReferences": {},
  "deployedLinkReferences": {}
}