{
  "_format": "hh-sol-artifact-1",
  "contractName": "WavePortal",
  "sourceName": "contracts/WavePortal.sol",
  "abi": [
    {
      "inputs": [],
      "stateMutability": "nonpayable",
      "type": "constructor"
    },
    {
      "inputs": [
        {
          "internalType": "address",
          "name": "_sender",
          "type": "address"
        }
      ],
      "name": "countWavesBySender",
      "outputs": [],
      "stateMutability": "nonpayable",
      "type": "function"
    },
    {
      "inputs": [],
      "name": "getTotalWaves",
      "outputs": [
        {
          "internalType": "uint256",
          "name": "",
          "type": "uint256"
        }
      ],
      "stateMutability": "view",
      "type": "function"
    },
    {
      "inputs": [
        {
          "internalType": "address",
          "name": "",
          "type": "address"
        }
      ],
      "name": "senderToCount",
      "outputs": [
        {
          "internalType": "uint256",
          "name": "",
          "type": "uint256"
        }
      ],
      "stateMutability": "view",
      "type": "function"
    },
    {
      "inputs": [],
      "name": "wave",
      "outputs": [],
      "stateMutability": "nonpayable",
      "type": "function"
    }
  ],
  "bytecode": "0x608060405234801561001057600080fd5b5061003c6040518060600160405280603d8152602001610982603d913961004160201b6102631760201c565b6101bb565b6100dd816040516024016100559190610199565b6040516020818303038152906040527f41304fac000000000000000000000000000000000000000000000000000000007bffffffffffffffffffffffffffffffffffffffffffffffffffffffff19166020820180517bffffffffffffffffffffffffffffffffffffffffffffffffffffffff83818316178352505050506100e060201b60201c565b50565b60008151905060006a636f6e736f6c652e6c6f679050602083016000808483855afa5050505050565b600081519050919050565b600082825260208201905092915050565b60005b83811015610143578082015181840152602081019050610128565b60008484015250505050565b6000601f19601f8301169050919050565b600061016b82610109565b6101758185610114565b9350610185818560208601610125565b61018e8161014f565b840191505092915050565b600060208201905081810360008301526101b38184610160565b905092915050565b6107b8806101ca6000396000f3fe608060405234801561001057600080fd5b506004361061004c5760003560e01c8063195bc6c3146100515780636fe15b441461006d5780638cb04170146100775780639a2cdc08146100a7575b600080fd5b61006b6004803603810190610066919061055f565b6100c5565b005b61007561019d565b005b610091600480360381019061008c919061055f565b610200565b60405161009e91906105a5565b60405180910390f35b6100af610218565b6040516100bc91906105a5565b60405180910390f35b60018060008373ffffffffffffffffffffffffffffffffffffffff1673ffffffffffffffffffffffffffffffffffffffff168152602001908152602001600020600082825461011491906105ef565b9250508190555061019a6040518060400160405280600781526020017f2573202d2025640000000000000000000000000000000000000000000000000081525082600160008573ffffffffffffffffffffffffffffffffffffffff1673ffffffffffffffffffffffffffffffffffffffff168152602001908152602001600020546102fc565b50565b60016000808282546101af91906105ef565b925050819055506101f56040518060400160405280600c81526020017f25732068617320776176656400000000000000000000000000000000000000008152503361039b565b6101fe336100c5565b565b60016020528060005260406000206000915090505481565b600061025b6040518060400160405280601781526020017f5765206861766520256420746f74616c2077617665730a000000000000000000815250600054610437565b600054905090565b6102f98160405160240161027791906106b3565b6040516020818303038152906040527f41304fac000000000000000000000000000000000000000000000000000000007bffffffffffffffffffffffffffffffffffffffffffffffffffffffff19166020820180517bffffffffffffffffffffffffffffffffffffffffffffffffffffffff83818316178352505050506104d3565b50565b610396838383604051602401610314939291906106e4565b6040516020818303038152906040527f0d26b925000000000000000000000000000000000000000000000000000000007bffffffffffffffffffffffffffffffffffffffffffffffffffffffff19166020820180517bffffffffffffffffffffffffffffffffffffffffffffffffffffffff83818316178352505050506104d3565b505050565b61043382826040516024016103b1929190610722565b6040516020818303038152906040527f319af333000000000000000000000000000000000000000000000000000000007bffffffffffffffffffffffffffffffffffffffffffffffffffffffff19166020820180517bffffffffffffffffffffffffffffffffffffffffffffffffffffffff83818316178352505050506104d3565b5050565b6104cf828260405160240161044d929190610752565b6040516020818303038152906040527fb60e72cc000000000000000000000000000000000000000000000000000000007bffffffffffffffffffffffffffffffffffffffffffffffffffffffff19166020820180517bffffffffffffffffffffffffffffffffffffffffffffffffffffffff83818316178352505050506104d3565b5050565b60008151905060006a636f6e736f6c652e6c6f679050602083016000808483855afa5050505050565b600080fd5b600073ffffffffffffffffffffffffffffffffffffffff82169050919050565b600061052c82610501565b9050919050565b61053c81610521565b811461054757600080fd5b50565b60008135905061055981610533565b92915050565b600060208284031215610575576105746104fc565b5b60006105838482850161054a565b91505092915050565b6000819050919050565b61059f8161058c565b82525050565b60006020820190506105ba6000830184610596565b92915050565b7f4e487b7100000000000000000000000000000000000000000000000000000000600052601160045260246000fd5b60006105fa8261058c565b91506106058361058c565b925082820190508082111561061d5761061c6105c0565b5b92915050565b600081519050919050565b600082825260208201905092915050565b60005b8381101561065d578082015181840152602081019050610642565b60008484015250505050565b6000601f19601f8301169050919050565b600061068582610623565b61068f818561062e565b935061069f81856020860161063f565b6106a881610669565b840191505092915050565b600060208201905081810360008301526106cd818461067a565b905092915050565b6106de81610521565b82525050565b600060608201905081810360008301526106fe818661067a565b905061070d60208301856106d5565b61071a6040830184610596565b949350505050565b6000604082019050818103600083015261073c818561067a565b905061074b60208301846106d5565b9392505050565b6000604082019050818103600083015261076c818561067a565b905061077b6020830184610596565b939250505056fea2646970667358221220b3bfe01697549eee180d858198de8e18e5c7873b10c6a1e6d4730f746a8bed4264736f6c6343000811003354686973206973206d7920666972737420696e746572616374696f6e207769746820736d61727420636f6e74726163747320616e642068617264686174",
  "linkReferences": {},
  "deployedLinkReferences": {}
}